{
  "contractName": "MockPriceOracle",
  "abi": [
    {
      "anonymous": false,
      "inputs": [
        {
          "indexed": true,
          "internalType": "address",
          "name": "previousOwner",
          "type": "address"
        },
        {
          "indexed": true,
          "internalType": "address",
          "name": "newOwner",
          "type": "address"
        }
      ],
      "name": "OwnershipTransferred",
      "type": "event"
    },
    {
      "anonymous": false,
      "inputs": [
        {
          "indexed": true,
          "internalType": "address",
          "name": "asset",
          "type": "address"
        },
        {
          "indexed": false,
          "internalType": "uint256",
          "name": "price",
          "type": "uint256"
        }
      ],
      "name": "PriceUpdated",
      "type": "event"
    },
    {
      "inputs": [
        {
          "internalType": "address",
          "name": "",
          "type": "address"
        }
      ],
      "name": "assetPrices",
      "outputs": [
        {
          "internalType": "uint256",
          "name": "",
          "type": "uint256"
        }
      ],
      "stateMutability": "view",
      "type": "function",
      "constant": true
    },
    {
      "inputs": [],
      "name": "owner",
      "outputs": [
        {
          "internalType": "address",
          "name": "",
          "type": "address"
        }
      ],
      "stateMutability": "view",
      "type": "function",
      "constant": true
    },
    {
      "inputs": [],
      "name": "renounceOwnership",
      "outputs": [],
      "stateMutability": "nonpayable",
      "type": "function"
    },
    {
      "inputs": [
        {
          "internalType": "address",
          "name": "newOwner",
          "type": "address"
        }
      ],
      "name": "transferOwnership",
      "outputs": [],
      "stateMutability": "nonpayable",
      "type": "function"
    },
    {
      "inputs": [
        {
          "internalType": "address",
          "name": "_asset",
          "type": "address"
        },
        {
          "internalType": "uint256",
          "name": "_price",
          "type": "uint256"
        }
      ],
      "name": "setAssetPrice",
      "outputs": [],
      "stateMutability": "nonpayable",
      "type": "function"
    },
    {
      "inputs": [
        {
          "internalType": "address",
          "name": "_asset",
          "type": "address"
        }
      ],
      "name": "getAssetPrice",
      "outputs": [
        {
          "internalType": "uint256",
          "name": "",
          "type": "uint256"
        }
      ],
      "stateMutability": "view",
      "type": "function",
      "constant": true
    }
  ],
  "bytecode": "0x608060405234801561001057600080fd5b5061002d61002261003260201b60201c565b61003a60201b60201c565b6100fe565b600033905090565b60008060009054906101000a900473ffffffffffffffffffffffffffffffffffffffff169050816000806101000a81548173ffffffffffffffffffffffffffffffffffffffff021916908373ffffffffffffffffffffffffffffffffffffffff1602179055508173ffffffffffffffffffffffffffffffffffffffff168173ffffffffffffffffffffffffffffffffffffffff167f8be0079c531659141344cd1fd0a4f28419497f9722a3daafe3b4186f6b6457e060405160405180910390a35050565b6106ab8061010d6000396000f3fe608060405234801561001057600080fd5b50600436106100625760003560e01c806351323f72146100675780635e9a523c14610083578063715018a6146100b35780638da5cb5b146100bd578063b3596f07146100db578063f2fde38b1461010b575b600080fd5b610081600480360381019061007c9190610484565b610127565b005b61009d6004803603810190610098919061045b565b6101c5565b6040516100aa91906105df565b60405180910390f35b6100bb6101dd565b005b6100c56101f1565b6040516100d29190610584565b60405180910390f35b6100f560048036038101906100f0919061045b565b61021a565b60405161010291906105df565b60405180910390f35b6101256004803603810190610120919061045b565b610263565b005b61012f6102e7565b80600160008473ffffffffffffffffffffffffffffffffffffffff1673ffffffffffffffffffffffffffffffffffffffff168152602001908152602001600020819055508173ffffffffffffffffffffffffffffffffffffffff167f0d86730737b142fc160892fa8a0f2db687a92a0e294d1ad70624cf5acef03b84826040516101b991906105df565b60405180910390a25050565b60016020528060005260406000206000915090505481565b6101e56102e7565b6101ef6000610365565b565b60008060009054906101000a900473ffffffffffffffffffffffffffffffffffffffff16905090565b6000600160008373ffffffffffffffffffffffffffffffffffffffff1673ffffffffffffffffffffffffffffffffffffffff168152602001908152602001600020549050919050565b61026b6102e7565b600073ffffffffffffffffffffffffffffffffffffffff168173ffffffffffffffffffffffffffffffffffffffff1614156102db576040517f08c379a00000000000000000000000000000000000000000000000000000000081526004016102d29061059f565b60405180910390fd5b6102e481610365565b50565b6102ef610429565b73ffffffffffffffffffffffffffffffffffffffff1661030d6101f1565b73ffffffffffffffffffffffffffffffffffffffff1614610363576040517f08c379a000000000000000000000000000000000000000000000000000000000815260040161035a906105bf565b60405180910390fd5b565b60008060009054906101000a900473ffffffffffffffffffffffffffffffffffffffff169050816000806101000a81548173ffffffffffffffffffffffffffffffffffffffff021916908373ffffffffffffffffffffffffffffffffffffffff1602179055508173ffffffffffffffffffffffffffffffffffffffff168173ffffffffffffffffffffffffffffffffffffffff167f8be0079c531659141344cd1fd0a4f28419497f9722a3daafe3b4186f6b6457e060405160405180910390a35050565b600033905090565b60008135905061044081610647565b92915050565b6000813590506104558161065e565b92915050565b60006020828403121561046d57600080fd5b600061047b84828501610431565b91505092915050565b6000806040838503121561049757600080fd5b60006104a585828601610431565b92505060206104b685828601610446565b9150509250929050565b6104c98161060b565b82525050565b60006104dc6026836105fa565b91507f4f776e61626c653a206e6577206f776e657220697320746865207a65726f206160008301527f64647265737300000000000000000000000000000000000000000000000000006020830152604082019050919050565b60006105426020836105fa565b91507f4f776e61626c653a2063616c6c6572206973206e6f7420746865206f776e65726000830152602082019050919050565b61057e8161063d565b82525050565b600060208201905061059960008301846104c0565b92915050565b600060208201905081810360008301526105b8816104cf565b9050919050565b600060208201905081810360008301526105d881610535565b9050919050565b60006020820190506105f46000830184610575565b92915050565b600082825260208201905092915050565b60006106168261061d565b9050919050565b600073ffffffffffffffffffffffffffffffffffffffff82169050919050565b6000819050919050565b6106508161060b565b811461065b57600080fd5b50565b6106678161063d565b811461067257600080fd5b5056fea2646970667358221220540b5a92771e0cd33fa787d48020e9f2c8e83ae36174f8363325c338575107f764736f6c63430008000033",
  "immutableReferences": {},
  "source": "// SPDX-License-Identifier: MIT\npragma solidity ^0.8.0;\n\nimport \"@openzeppelin/contracts/access/Ownable.sol\";\n\ncontract MockPriceOracle is Ownable {\n    mapping(address => uint256) public assetPrices;\n    \n    event PriceUpdated(address indexed asset, uint256 price);\n\n    function setAssetPrice(address _asset, uint256 _price) external onlyOwner {\n        assetPrices[_asset] = _price;\n        emit PriceUpdated(_asset, _price);\n    }\n\n    function getAssetPrice(address _asset) external view returns (uint256) {\n        return assetPrices[_asset];\n    }\n}",
  "sourcePath": "/home/gujjar/Sem-7/CS765/money_market/contracts/MockPriceOracle.sol",
  "compiler": {
    "name": "solc",
    "version": "0.8.0+commit.c7dfd78e.Emscripten.clang"
  },
  "schemaVersion": "3.4.16",
  "updatedAt": "2025-10-21T15:54:07.231Z",
  "networkType": "ethereum",
  "devdoc": {
    "kind": "dev",
    "methods": {
      "owner()": {
        "details": "Returns the address of the current owner."
      },
      "renounceOwnership()": {
        "details": "Leaves the contract without owner. It will not be possible to call `onlyOwner` functions. Can only be called by the current owner. NOTE: Renouncing ownership will leave the contract without an owner, thereby disabling any functionality that is only available to the owner."
      },
      "transferOwnership(address)": {
        "details": "Transfers ownership of the contract to a new account (`newOwner`). Can only be called by the current owner."
      }
    },
    "version": 1
  },
  "userdoc": {
    "kind": "user",
    "methods": {},
    "version": 1
  }
}