{
  "contractName": "MoneyMarket",
  "abi": [
    {
      "inputs": [
        {
          "internalType": "address",
          "name": "_vlToken",
          "type": "address"
        },
        {
          "internalType": "address",
          "name": "_sbToken",
          "type": "address"
        },
        {
          "internalType": "address",
          "name": "_priceOracle",
          "type": "address"
        }
      ],
      "stateMutability": "nonpayable",
      "type": "constructor"
    },
    {
      "anonymous": false,
      "inputs": [
        {
          "indexed": true,
          "internalType": "address",
          "name": "user",
          "type": "address"
        },
        {
          "indexed": false,
          "internalType": "uint256",
          "name": "amount",
          "type": "uint256"
        }
      ],
      "name": "Borrowed",
      "type": "event"
    },
    {
      "anonymous": false,
      "inputs": [
        {
          "indexed": true,
          "internalType": "address",
          "name": "user",
          "type": "address"
        },
        {
          "indexed": false,
          "internalType": "uint256",
          "name": "amount",
          "type": "uint256"
        }
      ],
      "name": "Deposited",
      "type": "event"
    },
    {
      "anonymous": false,
      "inputs": [
        {
          "indexed": true,
          "internalType": "address",
          "name": "user",
          "type": "address"
        },
        {
          "indexed": true,
          "internalType": "address",
          "name": "liquidator",
          "type": "address"
        },
        {
          "indexed": false,
          "internalType": "uint256",
          "name": "debtRepaid",
          "type": "uint256"
        },
        {
          "indexed": false,
          "internalType": "uint256",
          "name": "collateralSeized",
          "type": "uint256"
        }
      ],
      "name": "Liquidated",
      "type": "event"
    },
    {
      "anonymous": false,
      "inputs": [
        {
          "indexed": true,
          "internalType": "address",
          "name": "previousOwner",
          "type": "address"
        },
        {
          "indexed": true,
          "internalType": "address",
          "name": "newOwner",
          "type": "address"
        }
      ],
      "name": "OwnershipTransferred",
      "type": "event"
    },
    {
      "anonymous": false,
      "inputs": [
        {
          "indexed": true,
          "internalType": "address",
          "name": "user",
          "type": "address"
        },
        {
          "indexed": false,
          "internalType": "uint256",
          "name": "amount",
          "type": "uint256"
        }
      ],
      "name": "Repaid",
      "type": "event"
    },
    {
      "anonymous": false,
      "inputs": [
        {
          "indexed": true,
          "internalType": "address",
          "name": "user",
          "type": "address"
        },
        {
          "indexed": false,
          "internalType": "uint256",
          "name": "amount",
          "type": "uint256"
        }
      ],
      "name": "Withdrawn",
      "type": "event"
    },
    {
      "inputs": [],
      "name": "closeFactor",
      "outputs": [
        {
          "internalType": "uint256",
          "name": "",
          "type": "uint256"
        }
      ],
      "stateMutability": "view",
      "type": "function",
      "constant": true
    },
    {
      "inputs": [
        {
          "internalType": "address",
          "name": "",
          "type": "address"
        }
      ],
      "name": "collateralBalances",
      "outputs": [
        {
          "internalType": "uint256",
          "name": "",
          "type": "uint256"
        }
      ],
      "stateMutability": "view",
      "type": "function",
      "constant": true
    },
    {
      "inputs": [],
      "name": "collateralFactor",
      "outputs": [
        {
          "internalType": "uint256",
          "name": "",
          "type": "uint256"
        }
      ],
      "stateMutability": "view",
      "type": "function",
      "constant": true
    },
    {
      "inputs": [
        {
          "internalType": "address",
          "name": "",
          "type": "address"
        }
      ],
      "name": "debtBalances",
      "outputs": [
        {
          "internalType": "uint256",
          "name": "",
          "type": "uint256"
        }
      ],
      "stateMutability": "view",
      "type": "function",
      "constant": true
    },
    {
      "inputs": [],
      "name": "liquidationBonus",
      "outputs": [
        {
          "internalType": "uint256",
          "name": "",
          "type": "uint256"
        }
      ],
      "stateMutability": "view",
      "type": "function",
      "constant": true
    },
    {
      "inputs": [],
      "name": "liquidationThreshold",
      "outputs": [
        {
          "internalType": "uint256",
          "name": "",
          "type": "uint256"
        }
      ],
      "stateMutability": "view",
      "type": "function",
      "constant": true
    },
    {
      "inputs": [],
      "name": "owner",
      "outputs": [
        {
          "internalType": "address",
          "name": "",
          "type": "address"
        }
      ],
      "stateMutability": "view",
      "type": "function",
      "constant": true
    },
    {
      "inputs": [],
      "name": "priceOracle",
      "outputs": [
        {
          "internalType": "address",
          "name": "",
          "type": "address"
        }
      ],
      "stateMutability": "view",
      "type": "function",
      "constant": true
    },
    {
      "inputs": [],
      "name": "renounceOwnership",
      "outputs": [],
      "stateMutability": "nonpayable",
      "type": "function"
    },
    {
      "inputs": [],
      "name": "sbToken",
      "outputs": [
        {
          "internalType": "address",
          "name": "",
          "type": "address"
        }
      ],
      "stateMutability": "view",
      "type": "function",
      "constant": true
    },
    {
      "inputs": [
        {
          "internalType": "address",
          "name": "newOwner",
          "type": "address"
        }
      ],
      "name": "transferOwnership",
      "outputs": [],
      "stateMutability": "nonpayable",
      "type": "function"
    },
    {
      "inputs": [],
      "name": "vlToken",
      "outputs": [
        {
          "internalType": "address",
          "name": "",
          "type": "address"
        }
      ],
      "stateMutability": "view",
      "type": "function",
      "constant": true
    },
    {
      "inputs": [
        {
          "internalType": "uint256",
          "name": "_collateralFactor",
          "type": "uint256"
        },
        {
          "internalType": "uint256",
          "name": "_liquidationThreshold",
          "type": "uint256"
        },
        {
          "internalType": "uint256",
          "name": "_liquidationBonus",
          "type": "uint256"
        },
        {
          "internalType": "uint256",
          "name": "_closeFactor",
          "type": "uint256"
        }
      ],
      "name": "setProtocolParameters",
      "outputs": [],
      "stateMutability": "nonpayable",
      "type": "function"
    },
    {
      "inputs": [
        {
          "internalType": "address",
          "name": "user",
          "type": "address"
        }
      ],
      "name": "getHealthFactor",
      "outputs": [
        {
          "internalType": "uint256",
          "name": "",
          "type": "uint256"
        }
      ],
      "stateMutability": "view",
      "type": "function",
      "constant": true
    },
    {
      "inputs": [
        {
          "internalType": "address",
          "name": "user",
          "type": "address"
        }
      ],
      "name": "getCollateralValue",
      "outputs": [
        {
          "internalType": "uint256",
          "name": "",
          "type": "uint256"
        }
      ],
      "stateMutability": "view",
      "type": "function",
      "constant": true
    },
    {
      "inputs": [
        {
          "internalType": "address",
          "name": "user",
          "type": "address"
        }
      ],
      "name": "getDebtValue",
      "outputs": [
        {
          "internalType": "uint256",
          "name": "",
          "type": "uint256"
        }
      ],
      "stateMutability": "view",
      "type": "function",
      "constant": true
    },
    {
      "inputs": [
        {
          "internalType": "address",
          "name": "user",
          "type": "address"
        }
      ],
      "name": "getBorrowingPower",
      "outputs": [
        {
          "internalType": "uint256",
          "name": "",
          "type": "uint256"
        }
      ],
      "stateMutability": "view",
      "type": "function",
      "constant": true
    },
    {
      "inputs": [
        {
          "internalType": "uint256",
          "name": "amount",
          "type": "uint256"
        }
      ],
      "name": "deposit",
      "outputs": [],
      "stateMutability": "nonpayable",
      "type": "function"
    },
    {
      "inputs": [
        {
          "internalType": "uint256",
          "name": "amount",
          "type": "uint256"
        }
      ],
      "name": "withdraw",
      "outputs": [],
      "stateMutability": "nonpayable",
      "type": "function"
    },
    {
      "inputs": [
        {
          "internalType": "uint256",
          "name": "amount",
          "type": "uint256"
        }
      ],
      "name": "borrow",
      "outputs": [],
      "stateMutability": "nonpayable",
      "type": "function"
    },
    {
      "inputs": [
        {
          "internalType": "uint256",
          "name": "amount",
          "type": "uint256"
        }
      ],
      "name": "repay",
      "outputs": [],
      "stateMutability": "nonpayable",
      "type": "function"
    },
    {
      "inputs": [
        {
          "internalType": "address",
          "name": "user",
          "type": "address"
        },
        {
          "internalType": "uint256",
          "name": "debtAmount",
          "type": "uint256"
        }
      ],
      "name": "liquidate",
      "outputs": [],
      "stateMutability": "nonpayable",
      "type": "function"
    },
    {
      "inputs": [
        {
          "internalType": "address",
          "name": "user",
          "type": "address"
        }
      ],
      "name": "getUserPosition",
      "outputs": [
        {
          "internalType": "uint256",
          "name": "collateral",
          "type": "uint256"
        },
        {
          "internalType": "uint256",
          "name": "debt",
          "type": "uint256"
        },
        {
          "internalType": "uint256",
          "name": "healthFactor",
          "type": "uint256"
        },
        {
          "internalType": "uint256",
          "name": "borrowingPower",
          "type": "uint256"
        }
      ],
      "stateMutability": "view",
      "type": "function",
      "constant": true
    }
  ],
  "bytecode": "0x6080604052611b58600455611f406005556101f46006556113886007553480156200002957600080fd5b5060405162002cad38038062002cad83398181016040528101906200004f91906200021e565b6200006f620000636200013b60201b60201c565b6200014360201b60201c565b82600160006101000a81548173ffffffffffffffffffffffffffffffffffffffff021916908373ffffffffffffffffffffffffffffffffffffffff16021790555081600260006101000a81548173ffffffffffffffffffffffffffffffffffffffff021916908373ffffffffffffffffffffffffffffffffffffffff16021790555080600360006101000a81548173ffffffffffffffffffffffffffffffffffffffff021916908373ffffffffffffffffffffffffffffffffffffffff160217905550505050620002c2565b600033905090565b60008060009054906101000a900473ffffffffffffffffffffffffffffffffffffffff169050816000806101000a81548173ffffffffffffffffffffffffffffffffffffffff021916908373ffffffffffffffffffffffffffffffffffffffff1602179055508173ffffffffffffffffffffffffffffffffffffffff168173ffffffffffffffffffffffffffffffffffffffff167f8be0079c531659141344cd1fd0a4f28419497f9722a3daafe3b4186f6b6457e060405160405180910390a35050565b6000815190506200021881620002a8565b92915050565b6000806000606084860312156200023457600080fd5b6000620002448682870162000207565b9350506020620002578682870162000207565b92505060406200026a8682870162000207565b9150509250925092565b6000620002818262000288565b9050919050565b600073ffffffffffffffffffffffffffffffffffffffff82169050919050565b620002b38162000274565b8114620002bf57600080fd5b50565b6129db80620002d26000396000f3fe608060405234801561001057600080fd5b506004361061014d5760003560e01c80638da5cb5b116100c3578063c5ebeaec1161007c578063c5ebeaec1461038f578063df011c41146103ab578063ebf5a908146103c9578063f12f0f39146103f9578063f2fde38b14610417578063fe6bcd7c146104335761014d565b80638da5cb5b146102bd57806397904e42146102db578063a41bfcfc1461030b578063b6b55f2514610327578063bcbaf48714610343578063c4ef1c4c1461035f5761014d565b80634031234c116101155780634031234c146101f6578063528a174c146102145780635b7c2dad14610244578063715018a61461027757806376e1958f146102815780637b7c1f4c1461029f5761014d565b806305308b9f146101525780632630c12f1461017057806329bc969d1461018e5780632e1a7d4d146101be578063371fd8e6146101da575b600080fd5b61015a610463565b604051610167919061270b565b60405180910390f35b610178610469565b6040516101859190612510565b60405180910390f35b6101a860048036038101906101a3919061203d565b61048f565b6040516101b5919061270b565b60405180910390f35b6101d860048036038101906101d391906120cb565b6104a7565b005b6101f460048036038101906101ef91906120cb565b6108bd565b005b6101fe610b58565b60405161020b919061270b565b60405180910390f35b61022e6004803603810190610229919061203d565b610b5e565b60405161023b919061270b565b60405180910390f35b61025e6004803603810190610259919061203d565b610b9d565b60405161026e949392919061274f565b60405180910390f35b61027f610c44565b005b610289610c58565b6040516102969190612510565b60405180910390f35b6102a7610c7e565b6040516102b4919061270b565b60405180910390f35b6102c5610c84565b6040516102d29190612510565b60405180910390f35b6102f560048036038101906102f0919061203d565b610cad565b604051610302919061270b565b60405180910390f35b6103256004803603810190610320919061211d565b610df9565b005b610341600480360381019061033c91906120cb565b610e23565b005b61035d60048036038101906103589190612066565b61103c565b005b6103796004803603810190610374919061203d565b611800565b604051610386919061270b565b60405180910390f35b6103a960048036038101906103a491906120cb565b611818565b005b6103b3611b9e565b6040516103c0919061270b565b60405180910390f35b6103e360048036038101906103de919061203d565b611ba4565b6040516103f0919061270b565b60405180910390f35b610401611cf0565b60405161040e9190612510565b60405180910390f35b610431600480360381019061042c919061203d565b611d16565b005b61044d6004803603810190610448919061203d565b611d9a565b60405161045a919061270b565b60405180910390f35b60075481565b600360009054906101000a900473ffffffffffffffffffffffffffffffffffffffff1681565b60086020528060005260406000206000915090505481565b600081116104ea576040517f08c379a00000000000000000000000000000000000000000000000000000000081526004016104e1906125eb565b60405180910390fd5b80600860003373ffffffffffffffffffffffffffffffffffffffff1673ffffffffffffffffffffffffffffffffffffffff16815260200190815260200160002054101561056c576040517f08c379a0000000000000000000000000000000000000000000000000000000008152600401610563906126ab565b60405180910390fd5b60006105c082600860003373ffffffffffffffffffffffffffffffffffffffff1673ffffffffffffffffffffffffffffffffffffffff16815260200190815260200160002054611e4790919063ffffffff16565b90506000600860003373ffffffffffffffffffffffffffffffffffffffff1673ffffffffffffffffffffffffffffffffffffffff16815260200190815260200160002054905081600860003373ffffffffffffffffffffffffffffffffffffffff1673ffffffffffffffffffffffffffffffffffffffff16815260200190815260200160002081905550600061065533611d9a565b9050670de0b6b3a76400008110156106a2576040517f08c379a00000000000000000000000000000000000000000000000000000000081526004016106999061260b565b60405180910390fd5b81600860003373ffffffffffffffffffffffffffffffffffffffff1673ffffffffffffffffffffffffffffffffffffffff1681526020019081526020016000208190555061073884600860003373ffffffffffffffffffffffffffffffffffffffff1673ffffffffffffffffffffffffffffffffffffffff16815260200190815260200160002054611e4790919063ffffffff16565b600860003373ffffffffffffffffffffffffffffffffffffffff1673ffffffffffffffffffffffffffffffffffffffff16815260200190815260200160002081905550600160009054906101000a900473ffffffffffffffffffffffffffffffffffffffff1673ffffffffffffffffffffffffffffffffffffffff1663a9059cbb33866040518363ffffffff1660e01b81526004016107d8929190612562565b602060405180830381600087803b1580156107f257600080fd5b505af1158015610806573d6000803e3d6000fd5b505050506040513d601f19601f8201168201806040525081019061082a91906120a2565b610869576040517f08c379a0000000000000000000000000000000000000000000000000000000008152600401610860906125cb565b60405180910390fd5b3373ffffffffffffffffffffffffffffffffffffffff167f7084f5476618d8e60b11ef0d7d3f06914655adb8793e28ff7f018d4c76d505d5856040516108af919061270b565b60405180910390a250505050565b60008111610900576040517f08c379a00000000000000000000000000000000000000000000000000000000081526004016108f7906125eb565b60405180910390fd5b80600960003373ffffffffffffffffffffffffffffffffffffffff1673ffffffffffffffffffffffffffffffffffffffff168152602001908152602001600020541015610982576040517f08c379a00000000000000000000000000000000000000000000000000000000081526004016109799061262b565b60405180910390fd5b600260009054906101000a900473ffffffffffffffffffffffffffffffffffffffff1673ffffffffffffffffffffffffffffffffffffffff166323b872dd3330846040518463ffffffff1660e01b81526004016109e19392919061252b565b602060405180830381600087803b1580156109fb57600080fd5b505af1158015610a0f573d6000803e3d6000fd5b505050506040513d601f19601f82011682018060405250810190610a3391906120a2565b610a72576040517f08c379a0000000000000000000000000000000000000000000000000000000008152600401610a69906125cb565b60405180910390fd5b610ac481600960003373ffffffffffffffffffffffffffffffffffffffff1673ffffffffffffffffffffffffffffffffffffffff16815260200190815260200160002054611e4790919063ffffffff16565b600960003373ffffffffffffffffffffffffffffffffffffffff1673ffffffffffffffffffffffffffffffffffffffff168152602001908152602001600020819055503373ffffffffffffffffffffffffffffffffffffffff167f0516911bcc3a0a7412a44601057c0a0a1ec628bde049a84284bc42886653448882604051610b4d919061270b565b60405180910390a250565b60055481565b600080610b6a83610cad565b9050610b95612710610b8760045484611e5d90919063ffffffff16565b611e7390919063ffffffff16565b915050919050565b600080600080600860008673ffffffffffffffffffffffffffffffffffffffff1673ffffffffffffffffffffffffffffffffffffffff168152602001908152602001600020549350600960008673ffffffffffffffffffffffffffffffffffffffff1673ffffffffffffffffffffffffffffffffffffffff168152602001908152602001600020549250610c3085611d9a565b9150610c3b85610b5e565b90509193509193565b610c4c611e89565b610c566000611f07565b565b600260009054906101000a900473ffffffffffffffffffffffffffffffffffffffff1681565b60065481565b60008060009054906101000a900473ffffffffffffffffffffffffffffffffffffffff16905090565b600080600860008473ffffffffffffffffffffffffffffffffffffffff1673ffffffffffffffffffffffffffffffffffffffff1681526020019081526020016000205490506000600360009054906101000a900473ffffffffffffffffffffffffffffffffffffffff1673ffffffffffffffffffffffffffffffffffffffff1663b3596f07600160009054906101000a900473ffffffffffffffffffffffffffffffffffffffff166040518263ffffffff1660e01b8152600401610d719190612510565b60206040518083038186803b158015610d8957600080fd5b505afa158015610d9d573d6000803e3d6000fd5b505050506040513d601f19601f82011682018060405250810190610dc191906120f4565b9050610df0670de0b6b3a7640000610de28385611e5d90919063ffffffff16565b611e7390919063ffffffff16565b92505050919050565b610e01611e89565b8360048190555082600581905550816006819055508060078190555050505050565b60008111610e66576040517f08c379a0000000000000000000000000000000000000000000000000000000008152600401610e5d906125eb565b60405180910390fd5b600160009054906101000a900473ffffffffffffffffffffffffffffffffffffffff1673ffffffffffffffffffffffffffffffffffffffff166323b872dd3330846040518463ffffffff1660e01b8152600401610ec59392919061252b565b602060405180830381600087803b158015610edf57600080fd5b505af1158015610ef3573d6000803e3d6000fd5b505050506040513d601f19601f82011682018060405250810190610f1791906120a2565b610f56576040517f08c379a0000000000000000000000000000000000000000000000000000000008152600401610f4d906125cb565b60405180910390fd5b610fa881600860003373ffffffffffffffffffffffffffffffffffffffff1673ffffffffffffffffffffffffffffffffffffffff16815260200190815260200160002054611fcb90919063ffffffff16565b600860003373ffffffffffffffffffffffffffffffffffffffff1673ffffffffffffffffffffffffffffffffffffffff168152602001908152602001600020819055503373ffffffffffffffffffffffffffffffffffffffff167f2da466a7b24304f47e87fa2e1e5a81b9831ce54fec19055ce277ca2f39ba42c482604051611031919061270b565b60405180910390a250565b670de0b6b3a764000061104e83611d9a565b1061108e576040517f08c379a00000000000000000000000000000000000000000000000000000000081526004016110859061258b565b60405180910390fd5b600081116110d1576040517f08c379a00000000000000000000000000000000000000000000000000000000081526004016110c8906126eb565b60405180910390fd5b600061113b61271061112d600754600960008873ffffffffffffffffffffffffffffffffffffffff1673ffffffffffffffffffffffffffffffffffffffff16815260200190815260200160002054611e5d90919063ffffffff16565b611e7390919063ffffffff16565b9050600081831161114c578261114e565b815b9050600960008573ffffffffffffffffffffffffffffffffffffffff1673ffffffffffffffffffffffffffffffffffffffff168152602001908152602001600020548111156111d2576040517f08c379a00000000000000000000000000000000000000000000000000000000081526004016111c99061266b565b60405180910390fd5b60006112cd670de0b6b3a76400006112bf600360009054906101000a900473ffffffffffffffffffffffffffffffffffffffff1673ffffffffffffffffffffffffffffffffffffffff1663b3596f07600260009054906101000a900473ffffffffffffffffffffffffffffffffffffffff166040518263ffffffff1660e01b81526004016112609190612510565b60206040518083038186803b15801561127857600080fd5b505afa15801561128c573d6000803e3d6000fd5b505050506040513d601f19601f820116820180604052508101906112b091906120f4565b85611e5d90919063ffffffff16565b611e7390919063ffffffff16565b905060006113076127106112f96006546127106112ea91906127a5565b85611e5d90919063ffffffff16565b611e7390919063ffffffff16565b90506000611404600360009054906101000a900473ffffffffffffffffffffffffffffffffffffffff1673ffffffffffffffffffffffffffffffffffffffff1663b3596f07600160009054906101000a900473ffffffffffffffffffffffffffffffffffffffff166040518263ffffffff1660e01b815260040161138b9190612510565b60206040518083038186803b1580156113a357600080fd5b505afa1580156113b7573d6000803e3d6000fd5b505050506040513d601f19601f820116820180604052508101906113db91906120f4565b6113f6670de0b6b3a764000085611e5d90919063ffffffff16565b611e7390919063ffffffff16565b9050600860008873ffffffffffffffffffffffffffffffffffffffff1673ffffffffffffffffffffffffffffffffffffffff16815260200190815260200160002054811115611488576040517f08c379a000000000000000000000000000000000000000000000000000000000815260040161147f906126cb565b60405180910390fd5b600260009054906101000a900473ffffffffffffffffffffffffffffffffffffffff1673ffffffffffffffffffffffffffffffffffffffff166323b872dd3330876040518463ffffffff1660e01b81526004016114e79392919061252b565b602060405180830381600087803b15801561150157600080fd5b505af1158015611515573d6000803e3d6000fd5b505050506040513d601f19601f8201168201806040525081019061153991906120a2565b611578576040517f08c379a000000000000000000000000000000000000000000000000000000000815260040161156f906125cb565b60405180910390fd5b6115ca84600960008a73ffffffffffffffffffffffffffffffffffffffff1673ffffffffffffffffffffffffffffffffffffffff16815260200190815260200160002054611e4790919063ffffffff16565b600960008973ffffffffffffffffffffffffffffffffffffffff1673ffffffffffffffffffffffffffffffffffffffff1681526020019081526020016000208190555061165f81600860008a73ffffffffffffffffffffffffffffffffffffffff1673ffffffffffffffffffffffffffffffffffffffff16815260200190815260200160002054611e4790919063ffffffff16565b600860008973ffffffffffffffffffffffffffffffffffffffff1673ffffffffffffffffffffffffffffffffffffffff16815260200190815260200160002081905550600160009054906101000a900473ffffffffffffffffffffffffffffffffffffffff1673ffffffffffffffffffffffffffffffffffffffff1663a9059cbb33836040518363ffffffff1660e01b81526004016116ff929190612562565b602060405180830381600087803b15801561171957600080fd5b505af115801561172d573d6000803e3d6000fd5b505050506040513d601f19601f8201168201806040525081019061175191906120a2565b611790576040517f08c379a0000000000000000000000000000000000000000000000000000000008152600401611787906125cb565b60405180910390fd5b3373ffffffffffffffffffffffffffffffffffffffff168773ffffffffffffffffffffffffffffffffffffffff167f1f0c6615429d1cdae0dfa233abf91d3b31cdbdd82c8081389832a61e1072f1ea86846040516117ef929190612726565b60405180910390a350505050505050565b60096020528060005260406000206000915090505481565b6000811161185b576040517f08c379a0000000000000000000000000000000000000000000000000000000008152600401611852906125eb565b60405180910390fd5b600061186633610b5e565b9050600061187333611ba4565b90506000611970670de0b6b3a7640000611962600360009054906101000a900473ffffffffffffffffffffffffffffffffffffffff1673ffffffffffffffffffffffffffffffffffffffff1663b3596f07600260009054906101000a900473ffffffffffffffffffffffffffffffffffffffff166040518263ffffffff1660e01b81526004016119039190612510565b60206040518083038186803b15801561191b57600080fd5b505afa15801561192f573d6000803e3d6000fd5b505050506040513d601f19601f8201168201806040525081019061195391906120f4565b87611e5d90919063ffffffff16565b611e7390919063ffffffff16565b9050826119868284611fcb90919063ffffffff16565b11156119c7576040517f08c379a00000000000000000000000000000000000000000000000000000000081526004016119be9061268b565b60405180910390fd5b611a1984600960003373ffffffffffffffffffffffffffffffffffffffff1673ffffffffffffffffffffffffffffffffffffffff16815260200190815260200160002054611fcb90919063ffffffff16565b600960003373ffffffffffffffffffffffffffffffffffffffff1673ffffffffffffffffffffffffffffffffffffffff16815260200190815260200160002081905550600260009054906101000a900473ffffffffffffffffffffffffffffffffffffffff1673ffffffffffffffffffffffffffffffffffffffff1663a9059cbb33866040518363ffffffff1660e01b8152600401611ab9929190612562565b602060405180830381600087803b158015611ad357600080fd5b505af1158015611ae7573d6000803e3d6000fd5b505050506040513d601f19601f82011682018060405250810190611b0b91906120a2565b611b4a576040517f08c379a0000000000000000000000000000000000000000000000000000000008152600401611b41906125cb565b60405180910390fd5b3373ffffffffffffffffffffffffffffffffffffffff167fac59582e5396aca512fa873a2047e7f4c80f8f55d4a06cb34a78a0187f62719f85604051611b90919061270b565b60405180910390a250505050565b60045481565b600080600960008473ffffffffffffffffffffffffffffffffffffffff1673ffffffffffffffffffffffffffffffffffffffff1681526020019081526020016000205490506000600360009054906101000a900473ffffffffffffffffffffffffffffffffffffffff1673ffffffffffffffffffffffffffffffffffffffff1663b3596f07600260009054906101000a900473ffffffffffffffffffffffffffffffffffffffff166040518263ffffffff1660e01b8152600401611c689190612510565b60206040518083038186803b158015611c8057600080fd5b505afa158015611c94573d6000803e3d6000fd5b505050506040513d601f19601f82011682018060405250810190611cb891906120f4565b9050611ce7670de0b6b3a7640000611cd98385611e5d90919063ffffffff16565b611e7390919063ffffffff16565b92505050919050565b600160009054906101000a900473ffffffffffffffffffffffffffffffffffffffff1681565b611d1e611e89565b600073ffffffffffffffffffffffffffffffffffffffff168173ffffffffffffffffffffffffffffffffffffffff161415611d8e576040517f08c379a0000000000000000000000000000000000000000000000000000000008152600401611d85906125ab565b60405180910390fd5b611d9781611f07565b50565b600080611da683610cad565b90506000611db384611ba4565b90506000811415611de8577fffffffffffffffffffffffffffffffffffffffffffffffffffffffffffffffff92505050611e42565b611e3d81611e2f670de0b6b3a7640000611e21612710611e1360055489611e5d90919063ffffffff16565b611e7390919063ffffffff16565b611e5d90919063ffffffff16565b611e7390919063ffffffff16565b925050505b919050565b60008183611e559190612886565b905092915050565b60008183611e6b919061282c565b905092915050565b60008183611e8191906127fb565b905092915050565b611e91611fe1565b73ffffffffffffffffffffffffffffffffffffffff16611eaf610c84565b73ffffffffffffffffffffffffffffffffffffffff1614611f05576040517f08c379a0000000000000000000000000000000000000000000000000000000008152600401611efc9061264b565b60405180910390fd5b565b60008060009054906101000a900473ffffffffffffffffffffffffffffffffffffffff169050816000806101000a81548173ffffffffffffffffffffffffffffffffffffffff021916908373ffffffffffffffffffffffffffffffffffffffff1602179055508173ffffffffffffffffffffffffffffffffffffffff168173ffffffffffffffffffffffffffffffffffffffff167f8be0079c531659141344cd1fd0a4f28419497f9722a3daafe3b4186f6b6457e060405160405180910390a35050565b60008183611fd991906127a5565b905092915050565b600033905090565b600081359050611ff881612960565b92915050565b60008151905061200d81612977565b92915050565b6000813590506120228161298e565b92915050565b6000815190506120378161298e565b92915050565b60006020828403121561204f57600080fd5b600061205d84828501611fe9565b91505092915050565b6000806040838503121561207957600080fd5b600061208785828601611fe9565b925050602061209885828601612013565b9150509250929050565b6000602082840312156120b457600080fd5b60006120c284828501611ffe565b91505092915050565b6000602082840312156120dd57600080fd5b60006120eb84828501612013565b91505092915050565b60006020828403121561210657600080fd5b600061211484828501612028565b91505092915050565b6000806000806080858703121561213357600080fd5b600061214187828801612013565b945050602061215287828801612013565b935050604061216387828801612013565b925050606061217487828801612013565b91505092959194509250565b612189816128ba565b82525050565b600061219c601d83612794565b91507f4865616c746820666163746f72206d7573742062652062656c6f7720310000006000830152602082019050919050565b60006121dc602683612794565b91507f4f776e61626c653a206e6577206f776e657220697320746865207a65726f206160008301527f64647265737300000000000000000000000000000000000000000000000000006020830152604082019050919050565b6000612242600f83612794565b91507f5472616e73666572206661696c656400000000000000000000000000000000006000830152602082019050919050565b6000612282601d83612794565b91507f416d6f756e74206d7573742062652067726561746572207468616e20300000006000830152602082019050919050565b60006122c2602083612794565b91507f4865616c746820666163746f7220776f756c642064726f702062656c6f7720316000830152602082019050919050565b6000612302601983612794565b91507f526570617920616d6f756e7420657863656564732064656274000000000000006000830152602082019050919050565b6000612342602083612794565b91507f4f776e61626c653a2063616c6c6572206973206e6f7420746865206f776e65726000830152602082019050919050565b6000612382602383612794565b91507f43616e6e6f74207265706179206d6f7265207468616e2063757272656e74206460008301527f65627400000000000000000000000000000000000000000000000000000000006020830152604082019050919050565b60006123e8601783612794565b91507f4578636565647320626f72726f77696e6720706f7765720000000000000000006000830152602082019050919050565b6000612428601783612794565b91507f496e73756666696369656e7420636f6c6c61746572616c0000000000000000006000830152602082019050919050565b6000612468602083612794565b91507f496e73756666696369656e7420636f6c6c61746572616c20746f207365697a656000830152602082019050919050565b60006124a8602283612794565b91507f4465627420616d6f756e74206d7573742062652067726561746572207468616e60008301527f20300000000000000000000000000000000000000000000000000000000000006020830152604082019050919050565b61250a816128f8565b82525050565b60006020820190506125256000830184612180565b92915050565b60006060820190506125406000830186612180565b61254d6020830185612180565b61255a6040830184612501565b949350505050565b60006040820190506125776000830185612180565b6125846020830184612501565b9392505050565b600060208201905081810360008301526125a48161218f565b9050919050565b600060208201905081810360008301526125c4816121cf565b9050919050565b600060208201905081810360008301526125e481612235565b9050919050565b6000602082019050818103600083015261260481612275565b9050919050565b60006020820190508181036000830152612624816122b5565b9050919050565b60006020820190508181036000830152612644816122f5565b9050919050565b6000602082019050818103600083015261266481612335565b9050919050565b6000602082019050818103600083015261268481612375565b9050919050565b600060208201905081810360008301526126a4816123db565b9050919050565b600060208201905081810360008301526126c48161241b565b9050919050565b600060208201905081810360008301526126e48161245b565b9050919050565b600060208201905081810360008301526127048161249b565b9050919050565b60006020820190506127206000830184612501565b92915050565b600060408201905061273b6000830185612501565b6127486020830184612501565b9392505050565b60006080820190506127646000830187612501565b6127716020830186612501565b61277e6040830185612501565b61278b6060830184612501565b95945050505050565b600082825260208201905092915050565b60006127b0826128f8565b91506127bb836128f8565b9250827fffffffffffffffffffffffffffffffffffffffffffffffffffffffffffffffff038211156127f0576127ef612902565b5b828201905092915050565b6000612806826128f8565b9150612811836128f8565b92508261282157612820612931565b5b828204905092915050565b6000612837826128f8565b9150612842836128f8565b9250817fffffffffffffffffffffffffffffffffffffffffffffffffffffffffffffffff048311821515161561287b5761287a612902565b5b828202905092915050565b6000612891826128f8565b915061289c836128f8565b9250828210156128af576128ae612902565b5b828203905092915050565b60006128c5826128d8565b9050919050565b60008115159050919050565b600073ffffffffffffffffffffffffffffffffffffffff82169050919050565b6000819050919050565b7f4e487b7100000000000000000000000000000000000000000000000000000000600052601160045260246000fd5b7f4e487b7100000000000000000000000000000000000000000000000000000000600052601260045260246000fd5b612969816128ba565b811461297457600080fd5b50565b612980816128cc565b811461298b57600080fd5b50565b612997816128f8565b81146129a257600080fd5b5056fea2646970667358221220e16599783bb9ad4c80fad9690fef944ed67ab73b969d4a175b2a2710deb42ae464736f6c63430008000033",
  "immutableReferences": {},
  "source": "// SPDX-License-Identifier: MIT\npragma solidity ^0.8.0;\n\nimport \"@openzeppelin/contracts/access/Ownable.sol\";\nimport \"@openzeppelin/contracts/token/ERC20/IERC20.sol\";\nimport \"@openzeppelin/contracts/utils/math/SafeMath.sol\";\n\n// Interface for MockPriceOracle\ninterface IPriceOracle {\n    function getAssetPrice(address _asset) external view returns (uint256);\n    function setAssetPrice(address _asset, uint256 _price) external;\n}\n\ncontract MoneyMarket is Ownable {\n    using SafeMath for uint256;\n\n    // Token addresses\n    address public vlToken;\n    address public sbToken;\n    address public priceOracle;\n\n    // Protocol parameters\n    uint256 public collateralFactor = 7000; // 70% in basis points\n    uint256 public liquidationThreshold = 8000; // 80% in basis points\n    uint256 public liquidationBonus = 500; // 5% in basis points\n    uint256 public closeFactor = 5000; // 50% in basis points\n\n    // User balances\n    mapping(address => uint256) public collateralBalances;\n    mapping(address => uint256) public debtBalances;\n\n    // Events\n    event Deposited(address indexed user, uint256 amount);\n    event Withdrawn(address indexed user, uint256 amount);\n    event Borrowed(address indexed user, uint256 amount);\n    event Repaid(address indexed user, uint256 amount);\n    event Liquidated(address indexed user, address indexed liquidator, uint256 debtRepaid, uint256 collateralSeized);\n\n    constructor(address _vlToken, address _sbToken, address _priceOracle) {\n        vlToken = _vlToken;\n        sbToken = _sbToken;\n        priceOracle = _priceOracle;\n    }\n\n    function setProtocolParameters(\n        uint256 _collateralFactor,\n        uint256 _liquidationThreshold,\n        uint256 _liquidationBonus,\n        uint256 _closeFactor\n    ) external onlyOwner {\n        collateralFactor = _collateralFactor;\n        liquidationThreshold = _liquidationThreshold;\n        liquidationBonus = _liquidationBonus;\n        closeFactor = _closeFactor;\n    }\n\n    function getHealthFactor(address user) public view returns (uint256) {\n        uint256 collateralValue = getCollateralValue(user);\n        uint256 debtValue = getDebtValue(user);\n        \n        if (debtValue == 0) return type(uint256).max;\n        \n        return collateralValue.mul(liquidationThreshold).div(10000).mul(1e18).div(debtValue);\n    }\n\n    function getCollateralValue(address user) public view returns (uint256) {\n        uint256 collateralBalance = collateralBalances[user];\n        uint256 price = IPriceOracle(priceOracle).getAssetPrice(vlToken);\n        return collateralBalance.mul(price).div(1e18);\n    }\n\n    function getDebtValue(address user) public view returns (uint256) {\n        uint256 debtBalance = debtBalances[user];\n        uint256 price = IPriceOracle(priceOracle).getAssetPrice(sbToken);\n        return debtBalance.mul(price).div(1e18);\n    }\n\n    function getBorrowingPower(address user) public view returns (uint256) {\n        uint256 collateralValue = getCollateralValue(user);\n        return collateralValue.mul(collateralFactor).div(10000);\n    }\n\n    function deposit(uint256 amount) external {\n        require(amount > 0, \"Amount must be greater than 0\");\n        \n        // Transfer tokens from user\n        require(IERC20(vlToken).transferFrom(msg.sender, address(this), amount), \"Transfer failed\");\n        \n        // Update collateral balance\n        collateralBalances[msg.sender] = collateralBalances[msg.sender].add(amount);\n        \n        emit Deposited(msg.sender, amount);\n    }\n\n    function withdraw(uint256 amount) external {\n        require(amount > 0, \"Amount must be greater than 0\");\n        require(collateralBalances[msg.sender] >= amount, \"Insufficient collateral\");\n        \n        // Calculate health factor after withdrawal\n        uint256 newCollateral = collateralBalances[msg.sender].sub(amount);\n        uint256 tempCollateral = collateralBalances[msg.sender];\n        collateralBalances[msg.sender] = newCollateral;\n        \n        uint256 healthFactor = getHealthFactor(msg.sender);\n        require(healthFactor >= 1e18, \"Health factor would drop below 1\");\n        \n        // Restore original balance if check passes\n        collateralBalances[msg.sender] = tempCollateral;\n        \n        // Update balance and transfer\n        collateralBalances[msg.sender] = collateralBalances[msg.sender].sub(amount);\n        require(IERC20(vlToken).transfer(msg.sender, amount), \"Transfer failed\");\n        \n        emit Withdrawn(msg.sender, amount);\n    }\n\n    function borrow(uint256 amount) external {\n        require(amount > 0, \"Amount must be greater than 0\");\n        \n        uint256 borrowingPower = getBorrowingPower(msg.sender);\n        uint256 currentDebtValue = getDebtValue(msg.sender);\n        uint256 borrowValue = amount.mul(IPriceOracle(priceOracle).getAssetPrice(sbToken)).div(1e18);\n        \n        require(currentDebtValue.add(borrowValue) <= borrowingPower, \"Exceeds borrowing power\");\n        \n        // Update debt balance\n        debtBalances[msg.sender] = debtBalances[msg.sender].add(amount);\n        \n        // Transfer borrowed tokens\n        require(IERC20(sbToken).transfer(msg.sender, amount), \"Transfer failed\");\n        \n        emit Borrowed(msg.sender, amount);\n    }\n\n    function repay(uint256 amount) external {\n        require(amount > 0, \"Amount must be greater than 0\");\n        require(debtBalances[msg.sender] >= amount, \"Repay amount exceeds debt\");\n        \n        // Transfer tokens from user\n        require(IERC20(sbToken).transferFrom(msg.sender, address(this), amount), \"Transfer failed\");\n        \n        // Update debt balance\n        debtBalances[msg.sender] = debtBalances[msg.sender].sub(amount);\n        \n        emit Repaid(msg.sender, amount);\n    }\n\n    function liquidate(address user, uint256 debtAmount) external {\n        require(getHealthFactor(user) < 1e18, \"Health factor must be below 1\");\n        require(debtAmount > 0, \"Debt amount must be greater than 0\");\n        \n        uint256 maxCloseAmount = debtBalances[user].mul(closeFactor).div(10000);\n        uint256 actualCloseAmount = debtAmount > maxCloseAmount ? maxCloseAmount : debtAmount;\n        \n        require(actualCloseAmount <= debtBalances[user], \"Cannot repay more than current debt\");\n        \n        // Calculate collateral to seize\n        uint256 debtValue = actualCloseAmount.mul(IPriceOracle(priceOracle).getAssetPrice(sbToken)).div(1e18);\n        uint256 collateralValue = debtValue.mul(10000 + liquidationBonus).div(10000);\n        uint256 collateralToSeize = collateralValue.mul(1e18).div(IPriceOracle(priceOracle).getAssetPrice(vlToken));\n        \n        require(collateralToSeize <= collateralBalances[user], \"Insufficient collateral to seize\");\n        \n        // Transfer debt repayment from liquidator\n        require(IERC20(sbToken).transferFrom(msg.sender, address(this), actualCloseAmount), \"Transfer failed\");\n        \n        // Update balances\n        debtBalances[user] = debtBalances[user].sub(actualCloseAmount);\n        collateralBalances[user] = collateralBalances[user].sub(collateralToSeize);\n        \n        // Transfer collateral to liquidator\n        require(IERC20(vlToken).transfer(msg.sender, collateralToSeize), \"Transfer failed\");\n        \n        emit Liquidated(user, msg.sender, actualCloseAmount, collateralToSeize);\n    }\n\n    function getUserPosition(address user) external view returns (\n        uint256 collateral,\n        uint256 debt,\n        uint256 healthFactor,\n        uint256 borrowingPower\n    ) {\n        collateral = collateralBalances[user];\n        debt = debtBalances[user];\n        healthFactor = getHealthFactor(user);\n        borrowingPower = getBorrowingPower(user);\n    }\n}",
  "sourcePath": "/home/gujjar/Sem-7/CS765/money_market/contracts/MoneyMarket.sol",
  "compiler": {
    "name": "solc",
    "version": "0.8.0+commit.c7dfd78e.Emscripten.clang"
  },
  "schemaVersion": "3.4.16",
  "updatedAt": "2025-10-21T15:54:07.234Z",
  "networkType": "ethereum",
  "devdoc": {
    "kind": "dev",
    "methods": {
      "owner()": {
        "details": "Returns the address of the current owner."
      },
      "renounceOwnership()": {
        "details": "Leaves the contract without owner. It will not be possible to call `onlyOwner` functions. Can only be called by the current owner. NOTE: Renouncing ownership will leave the contract without an owner, thereby disabling any functionality that is only available to the owner."
      },
      "transferOwnership(address)": {
        "details": "Transfers ownership of the contract to a new account (`newOwner`). Can only be called by the current owner."
      }
    },
    "version": 1
  },
  "userdoc": {
    "kind": "user",
    "methods": {},
    "version": 1
  }
}